:060000008031332D0000E9
:0800080083018031200077081C
:10001000A0007808A1007908A2007A08A300850151
:1000200091308400001C1628111826288501913073
:100030008400001D1D28111928282008F700210818
:10004000F8002208F9002308FA0009008031582836
:100050008031B6280B0001340234033404340534F3
:100060000A3432346434F701F8015C0803105D1877
:10007000F707F70CF80CDD18F707F70CF80C5D190B
:10008000F707F70CF80CDD19F707F70CF80C5D1AF9
:10009000F707F70CF80CDD1AF707F70CF80C5D1BE7
:1000A000F707F70CF80CDD1BF707F70CF80C080046
:1000B0005B109601EC309700773096002908FC3EE3
:1000C00003188C28043EAE2833186A2822008C10AE
:1000D0006C28200022008C1420008C283D187428E5
:1000E00022000C117628200022000C1520008C28FC
:1000F00047187E2822000C128028200022000C16AF
:1001000020008C285118882822008C128A28200070
:1001100022008C16200028145B18A5282908DC0072
:100120000A30DD0033200A30780784002030850053
:100130000318850A013FFA00003F773E2500910031
:10014000EC307A3D9200AA282000F630250092007B
:100150003B3091002000111080311D280A108A10B8
:100160000A11820764286E28782882282908FC3E14
:100170000318D228043ED52822008C10013020001C
:10018000A900D22822000C1102302000A900D22898
:1001900022000C1203302000A900D22822008C1269
:1001A0002000A901111180311D280A108A100A119E
:1001B0008207BC28C228C828CE28A4018B1BA417FC
:1001C0008B135208DC000A30DD003320A41B8B1790
:1001D000093078070A3E8400203085000318850A1C
:1001E00057080739F700F735F70DE33000057704B6
:1001F0008000A4018B1BA4178B135208DC000A306B
:10020000DD003320A41B8B17043078070A3E8400DE
:10021000203085000318850A530880005408813F68
:10022000A4018B1BA4178B135208DC000A30DD00DD
:100230003320A41B8B17063078070A3E8400203039
:1002400085000318850A550880005608813FA401DF
:100250008B1BA4178B135208DC000A30DD003320FF
:10026000A41B8B170A307807840020308500031800
:10027000850A530880005408813FA4018B1BA417F2
:100280008B135208DC000A30DD003320A41B8B17CF
:10029000023078070A3E8400203085000318850A62
:1002A000530880005408813FA4018B1BA4178B13B3
:1002B0005208DC000A30DD003320A41B8B17093004
:1002C00078070A3EF8002030FA000318FA0A780886
:1002D000DA007A08DB00581873295B0885005A0891
:1002E0008400801078295B0885005A0884008014F7
:1002F000A4018B1BA4178B135208DC000A30DD000D
:100300003320A41B8B17083078070A3E8400203066
:1003100085000318850A8001A4018B1BA4178B1389
:100320005208DC000A30DD003320A41B8B17093093
:1003300078070A3E8400203085000318850A0010E3
:10034000A4018B1BA4178B135208DC000A30DD00BC
:100350003320A41B8B17093078070A3E8400203015
:1003600085000318850A8016080022009D1135308B
:100370002000980099012F082500920020002E08E7
:100380002500910022001E119E110A3025009300C5
:10039000940195011E109E10013096002100111449
:1003A0001115C0308B0480312000A42DA4018B1BBB
:1003B000A4178B135408DC000A30DD003320A41B83
:1003C0008B17023078070A3E84002030850003181E
:1003D000850A550880005608813FA4018B1BA4178D
:1003E0008B135408DC000A30DD003320A41B8B176C
:1003F000083078070A3E8400203085000318850AFB
:100400008001A4018B1BA4178B135408DC000A3055
:10041000DD003320A41B8B17093078070A3E8400C7
:10042000203085000318850A0014A4018B1BA41733
:100430008B135408DC000A30DD003320A41B8B171B
:10044000093078070A3E8400203085000318850AA9
:100450008012A4018B1BA4178B135408DC000A30F4
:10046000DD003320A41B8B17043078070A3E84007C
:10047000203085000318850A01310008FA003F3159
:1004800000085502031D5D2A7A085602031D5D2AE5
:10049000A4018B1BA4178B135408DC000A30DD0069
:1004A0003320A41B8B17093078070A3E84002030C4
:1004B00085000318850A0013902AA4018B1BA4173A
:1004C0008B135408DC000A30DD003320A41B8B178B
:1004D000063078070A3E8400203085000318850A1C
:1004E00001310008FA003F3100085502031D902A2F
:1004F0007A085602031D902AA4018B1BA4178B13A4
:100500005408DC000A30DD003320A41B8B170930AF
:1005100078070A3E8400203085000318850A0017FA
:100520000800281C1B2D2810D2015208033C031C74
:100530001B2DA4018B1BA4178B135208DC000A305F
:10054000DD003320A41B8B17093078070A3EF80022
:100550002030FA000318FA0A780884007A08850027
:10056000003000180130013C031D192DA4018B1B24
:10057000A4178B135208DC000A30DD003320A41BC3
:100580008B170A3078078400203085000318850A0D
:100590000008D70001310008D8003F31A4018B1BAF
:1005A000A4178B135208DC000A30DD003320A41B93
:1005B0008B17023078070A3E84002030850003182C
:1005C000850A01310008FA003F310008F800580898
:1005D0007A02031CB92B031DF12A7808570203186D
:1005E000B92BA4018B1BA4178B135208DC000A3013
:1005F000DD003320A41B8B170A307807F800203069
:10060000FA000318FA0A7808D7007A08D800A4017B
:100610008B1BA4178B135208DC000A30DD0033203B
:10062000A41B8B170A30780784002030850003183C
:10063000850A0008D90001310008DA003F31A40121
:100640008B1BA4178B135208DC000A30DD0033200B
:10065000A41B8B17093078070A3E840020308500E0
:100660000318850A0008F700F736773607392A207D
:10067000F8005907F80000305A3DFA005808850084
:1006800057088400780880007A08813FA4018B1BFA
:10069000A4178B135208DC000A30DD003320A41BA2
:1006A0008B170A3078078400203085000318850AEC
:1006B0000008D70001310008D8003F31A4018B1B8E
:1006C000A4178B135208DC000A30DD003320A41B72
:1006D0008B17023078070A3E84002030850003180B
:1006E000850A01310008FA003F310008F8007A0855
:1006F0005802031CB82B031D812B570878020318DE
:10070000B82BA4018B1BA4178B135208DC000A30F2
:10071000DD003320A41B8B170A307807F800203047
:10072000FA000318FA0A7808D7007A08D800A4015A
:100730008B1BA4178B135208DC000A30DD0033201A
:10074000A41B8B17023078070A3E840020308500F6
:100750000318850A01310008FA003F310008D9006A
:100760005808850057088400590880007A08813F9E
:10077000192DA4018B1BA4178B135208DC000A301F
:10078000DD003320A41B8B170A307807840020304B
:1007900085000318850A0008D70001310008D80039
:1007A0003F31A4018B1BA4178B135208DC000A30C5
:1007B000DD003320A41B8B17023078070A3E84002B
:1007C000203085000318850A01310008FA003F3106
:1007D0000008F8007A085802031CBC2C031DF42BF7
:1007E000570878020318BC2CA4018B1BA4178B1389
:1007F0005208DC000A30DD003320A41B8B170A30BE
:100800007807F8002030FA000318FA0A7808D700B1
:100810007A08D800A4018B1BA4178B135208DC00A4
:100820000A30DD003320A41B8B170A3078078400C0
:10083000203085000318850A0008D900013100081E
:10084000DA003F31A4018B1BA4178B135208DC0084
:100850000A30DD003320A41B8B17093078070A3ECD
:100860008400203085000318850A0008F700F73659
:10087000773607392A20F8005902F70000305A3B32
:10088000FA005808850057088400770880007A0825
:10089000813FA4018B1BA4178B135208DC000A3084
:1008A000DD003320A41B8B170A307807840020302A
:1008B00085000318850A0008D70001310008D80018
:1008C0003F31A4018B1BA4178B135208DC000A30A4
:1008D000DD003320A41B8B17023078070A3E84000A
:1008E000203085000318850A01310008FA003F31E5
:1008F0000008F80058087A02031CBB2C031D842C46
:10090000780857020318BB2CA4018B1BA4178B1368
:100910005208DC000A30DD003320A41B8B170A309C
:100920007807F8002030FA000318FA0A7808D70090
:100930007A08D800A4018B1BA4178B135208DC0083
:100940000A30DD003320A41B8B17023078070A3EE3
:100950008400203085000318850A01310008FA0060
:100960003F310008D900580885005708840059080D
:1009700080007A08813F192DA4018B1BA4178B13CB
:100980005208DC000A30DD003320A41B8B1709302D
:1009900078070A3E8400203085000318850A8016F7
:1009A000A4018B1BA4178B135208DC000A30DD0056
:1009B0003320A41B8B17093078070A3EF80020303B
:1009C000FA000318FA0A780884007A0885000030D3
:1009D00080180130013C031D192DA4018B1BA417A5
:1009E0008B135208DC000A30DD003320A41B8B1768
:1009F000083078070A3E8400203085000318850AF5
:100A0000800A0008323C031D192DA4018B1BA4177A
:100A10008B135208DC000A30DD003320A41B8B1737
:100A2000093078070A3E8400203085000318850AC3
:100A30000010D20A952A80311D2E203085003230D8
:100A4000840000080319312D0A30F800F701F70B74
:100A5000272DF80B262D5F30F700F70B2D2D800B7F
:100A6000242D8031202EA501A701A6012810A9015F
:100A700023008C018E0122009201910194019301C7
:100A8000F0302100990017102200980121001E1655
:100A90009E161E139E131D141E109E101E11003054
:100AA00023008C008E0022001D139D12240095014E
:100AB00022009701920191019401930109302100D4
:100AC0008C0024008C013F3021008E0024008E0118
:100AD0002000D2010130D400F430D3000530D6001C
:100AE000DC30D5000130D700D800DD200130D20045
:100AF0000330D400E830D3000730D600D030D50022
:100B00000430D7000130D800DD200230D20005309B
:100B1000D400DC30D3000930D600C430D500063014
:100B2000D7000130D800DD200330D2000730D400D8
:100B3000D030D3000330D600E830D5000730D700DE
:100B40000130D800DD20B5292708FA002608A60ABA
:100B50000319A70AD2007A08D300063C03181C2EFA
:100B6000FF3A031DB72D5208D03C03181C2EA701D5
:100B7000A601A4018B1BA4178B132508DC000A30E7
:100B8000DD003320A41B8B17093078070A3EF800DC
:100B90002030FA000318FA0A780884007A088500E1
:100BA0000030001B0130003A031DF72DA4018B1B00
:100BB000A4178B132508DC000A30DD003320A41BAA
:100BC0008B17063078070A3E840020308500031812
:100BD000850A0008D20001310008D3003F31250802
:100BE000D4005308D6005208D500D621172EA401F0
:100BF0008B1BA4178B132508DC000A30DD00332083
:100C0000A41B8B17043078070A3E8400203085002F
:100C10000318850A0008D20001310008D3003F31D3
:100C20002508D4005308D6005208D500D621A50ABD
:100C30002508043C0319A501912A0130D2001D2D7D
:040C4000A42D63007C
:020000040001F9
:04000E00840FFF1C40
:00000001FF
;PIC16F1825
;CRC=3621  CREATED="06-jun.-22 20:39"
