:060000008031B82B000066
:0800080083018031200077081C
:10001000A0007808A1007908A2007A08A3002300B4
:1000200011082000A400230012082000A5002300CE
:1000300013082000A600230014082000A700850153
:1000400091308400001C2628111846288501913023
:100050008400001D2D28111948282008F7002108C8
:10006000F8002208F9002308FA0024082300910070
:10007000200025082300920020002608230093007A
:1000800020002708230094000900200080316F28F9
:100090008031AF28F701F801510803105218F70713
:1000A000F70CF80CD218F707F70CF80C5219F707F1
:1000B000F70CF80CD219F707F70CF80C521AF707DF
:1000C000F70CF80CD21AF707F70CF80C521BF707CD
:1000D000F70CF80CD21BF707F70CF80C08005010BF
:1000E0009601EC309700773096002B08FC3E031801
:1000F0008528043EA72822000C15200085285014CE
:1001000085285014852850142A1450189E282B082E
:10011000D1000630D2004A200C307807840020300D
:1001200085000318850A013FFA00003F773E25004D
:100130009100EC307A3D9200A3282000F630250093
:100140009200433091002000111080312D280A10B8
:100150008A100A1182077B287F28812883282B0890
:10016000FC3E0318C228043EC52822000C110130B1
:100170002000AB00C2280230AB00C2280330AB0025
:10018000C228AB01111180312D280A108A100A11E2
:100190008207B528BB28BE28C128D037741DA012FD
:1001A000B33A203EA029723B3A10251ACC3A0D05ED
:1001B0000000A8018B1BA8178B133308D100063051
:1001C000D2004A20A81B8B170C30780784002030FF
:1001D00085000318850A340880003508813FA8018E
:1001E0008B1BA8178B133308D1000630D2004A208E
:1001F000A81B8B17023078070C3E84002030850046
:100200000318850A340880003508813FA8018B1B3C
:10021000A8178B133308D1000630D2004A20A81B40
:100220008B17043078070C3E8400203085000318BB
:10023000850A360880003708813F80310B2C220068
:100240009D1135302000980099012F08250092005B
:1002500020002E082500910022001E119E110A3058
:1002600025009300940195011E109E100130960008
:10027000210011141115C0308B04803120000C2C8A
:100280002030C700C301C401C501C6013D08FA0002
:100290003C08F9003B08F8003A08F7000310771C07
:1002A0005F293E08C3073F0803183F0FC4074008F3
:1002B0000318400FC50741080318410FC607C60CB5
:1002C000C50CC40CC30CFA0CF90CF80CF70CC70BDA
:1002D0004E290800A8018B1BA8178B133C08D100DE
:1002E0000630D2004A20A81B8B170C3078078400F8
:1002F000203085000318850A3D0880003E08813FB4
:100300000800B801B701B601B501BD01BC01BB01D0
:100310003408BA00C101C0010730BF00D830BE00A8
:1003200040217A08B8007908B7007808B600770845
:10033000B50083103808BD003708BC003608BB0084
:100340003508BA00C101C001BF01FF30BE008318EB
:10035000AD2920308500263084003D0841068039D3
:10036000CB00BD1FBE29BA09BB09BC09BD09BA0A29
:100370000319BB0A0319BC0A0319BD0AC11FCB2903
:10038000BE09BF09C009C109BE0A0319BF0A031982
:10039000C00A0319C10AF701F801F901FA01C601FF
:1003A000C701C801C901410840043F043E040319C4
:1003B000092A2030CA000310BA0DBB0DBC0DBD0DBB
:1003C000C60DC70DC80DC90D41084902031DF2290C
:1003D00040084802031DF2293F084702031DF22985
:1003E0003E084602031C032A3E08C6023F08031CBF
:1003F0003F0FC7024008031C400FC8024108031CFE
:10040000410FC9020314F70DF80DF90DFA0DCA0BCF
:10041000DB29CB1F162AF709F809F909FA09F70AA7
:100420000319F80A0319F90A0319FA0A46088000A1
:100430004708813F4808823F4908833F7A08B8004F
:100440007908B7007808B6007708B500A8018B1BBB
:10045000A8178B133308D1000630D2004A20A81BFE
:100460008B17023078070C3E84002030850003187B
:10047000850A0008BA0001310008BB003F31350889
:10048000BA073608BB3D3308BC003B08BE003A083B
:10049000BD006A210800B801B701B601B501BD0170
:1004A000BC01BB013408BA00C101C0010730BF0064
:1004B000D830BE0040217A08B8007908B700780823
:1004C000B6007708B5003608F7003708F800380896
:1004D000F900FA017A08B8007908B7007808B60080
:1004E0007708B500A8018B1BA8178B133308D10020
:1004F0000630D2004A20A81B8B17023078070C3E2A
:100500008400203085000318850A0008BA000131F4
:100510000008BB003F313508BA073608BB3D330839
:10052000BC003B08BE003A08BD006A2108000B0869
:100530008B1323009517151400000000891B8B17DF
:100540000318CB2A13087F392000B40023001108B8
:100550002000B500230012082000B6003408111E48
:10056000AF2A23009A0020003508230091002000C4
:100570003608230092000B088B1395171514000002
:100580000000891B8B172000B30BC72AC92A230040
:10059000CB2AEC2A2300130D140D7F392000B40060
:1005A000230011082000B500230012082000B60027
:1005B0003408111ED92A23009A0020003508230090
:1005C00091002000360823009200910A0319920A34
:1005D00003102000B30B972A08003608F8013502F3
:1005E0000318F52A3508F700012BF7010830B7008A
:1005F000B50DF70D360877020318F700F80DB70BA5
:10060000F82A080078083308B5006430B600ED22F7
:100610007708B30078083030031D152BB41C1F2B4E
:10062000B4191F2B341A2030182BB411341234147F
:10063000F8077808111E1A2B23009A0020003308AF
:10064000B5000A30B600ED227708B30078083030E4
:10065000031D302BB419372B341C372B341A2030A0
:10066000F8077808111E322B23009A002000303042
:10067000B3073308111E3A2B23009A008031200063
:10068000322C0508BE000408BD00340EF038B90055
:10069000B907E23EBA00323EBC0034080F39BA074F
:1006A000BA07BC07E93EBB00BB07BB07330E0F39D7
:1006B000BB07BC07BB0DBC0DBC09BC0D33080F3913
:1006C000BC07B90D0730B8000A30BC07BB03031CD8
:1006D000652BBB07BA03031C692BBA07B903031CBC
:1006E0006D2BB907B803031C712B2030850018301F
:1006F000840007303D053D1384070030853D040824
:100700001C3C031D872B0508203C03193D170008DE
:10071000F700031D932B3D1B932B3D1A9D2BBD19F9
:10072000932B2030962BBD153D123030F7077708FC
:10073000111E982B23009A00200001313D1F7F2BB2
:100740008031432C203085001330840000080319C9
:10075000B62B0A30F800F701F70BAC2BF80BAB2BDC
:100760005F30F700F70BB22B800BA92B8031522C96
:1007700022001D159D172000A90123009F110130A3
:100780009B00A2309E0090309D0020002A10AB01FB
:1007900023008C018E0122009201910194019301AA
:1007A000F0302100990017102200980121001E1638
:1007B0009E161E139E131D141E109E101E11023035
:1007C00023008C0000308E0022001D139D12240097
:1007D00095012200970192019101940193013A3011
:1007E00021008C0024008C013F3021008E00240069
:1007F0008E010430F80021001D08833978049D0023
:100800002000B3010130B500F430B4000930B70066
:10081000CC30B600D9281F2921009D149D180E2C1C
:100820001C082000B200B3013208B4008121B301DA
:100830003208B4004B22B3013208B4008121B30165
:100840003208B4004B22CD302300910000309200DA
:10085000031005302000B30097223208B300133094
:10086000B400022BD130230091000030920003101D
:1008700008302000B3009722013084002D08B40016
:100880002C08B300412B0D30111E442C23009A007C
:100890000A302000111E4A2C23009A0064302000E8
:0808A000B300A22B0C2C630035
:020000040001F9
:04000E00840FFF1C40
:00000001FF
;PIC16F1825
;CRC=21A6  CREATED="06-jun.-22 17:34"
